:100000000C9461000C947E000C947E000C947E0095
:100010000C947E000C947E000C947E000C947E0068
:100020000C947E000C947E000C947E000C947E0058
:100030000C947E000C947E000C947E000C947E0048
:100040000C949D010C947E000C947E000C947E0018
:100050000C947E000C947E000C947E000C947E0028
:100060000C947E000C947E00000000002400270009
:100070002A0000000000250028002B0000000000DE
:1000800023002600290004040404040404040202DA
:100090000202020203030303030301020408102007
:1000A0004080010204081020010204081020000012
:1000B0000007000201000003040600000000000029
:1000C000000011241FBECFEFD8E0DEBFCDBF11E08E
:1000D000A0E0B1E0E4E1F8E002C005900D92A031AB
:1000E000B107D9F711E0A0E1B1E001C01D92A33240
:1000F000B107E1F70E9496010C9408040C940000EB
:10010000A0E0B0E0E6E8F0E00C94D903EC01A880B0
:10011000B980CA80DB80A114B104C104D10441F4C8
:1001200084E2A82E89EDB82E8BE5C82E87E0D82E64
:10013000C601B5012DE133EF41E050E00E94940388
:1001400027EA31E440E050E00E9475037B018C0116
:10015000C601B5012DE133EF41E050E00E94940368
:10016000CA01B9012CEE34EF4FEF5FEF0E94750327
:100170006E0D7F1D801F911F97FF04C0615070405E
:1001800080409048688379838A839B839B01AC017C
:100190005F77B901CA01CDB7DEB7EAE00C94F50389
:1001A0000E948000089580E091E00E948000089500
:1001B0006093000170930101809302019093030109
:1001C00008956091180170911901882777FD809535
:1001D000982F20910C0130910D01442737FD409557
:1001E000542F0E944F03709313016093120160918A
:1001F000180170911901882777FD8095982F20911B
:100200000C0130910D01442737FD4095542F0E9479
:100210004F03709315016093140160911801709160
:100220001901882777FD8095982F20910C01309136
:100230000D01442737FD4095542F0E944F037093C2
:1002400017016093160110921101109210012BC03A
:100250006091120170911301809108010E94670260
:100260006091160170911701809106010E9467024A
:100270006091140170911501809104010E94670240
:1002800060910A0170910B01882777FD8095982F66
:100290000E94E501809110019091110105969093C3
:1002A00011018093100180911001909111018F3FF5
:1002B000910571F26CF28FEF90E027C0609112010E
:1002C00070911301809108010E94670260911601EC
:1002D00070911701809106010E94670260911401DC
:1002E00070911501809104010E94670260910A01DA
:1002F00070910B01882777FD8095982F0E94E5016A
:1003000080911001909111010597909311018093B4
:100310001001809110019091110197FFCFCF0895A6
:1003200080E00E9449020E946D0308950E940F021E
:100330000E9490010E94E100FDCF1F920F920FB624
:100340000F9211242F933F938F939F93AF93BF935B
:1003500080911E0190911F01A0912001B091210177
:10036000309122010196A11DB11D232F2D5F2D3744
:1003700020F02D570196A11DB11D209322018093DD
:100380001E0190931F01A0932001B0932101809141
:100390001A0190911B01A0911C01B0911D010196C1
:1003A000A11DB11D80931A0190931B01A0931C0104
:1003B000B0931D01BF91AF919F918F913F912F916C
:1003C0000F900FBE0F901F901895EF92FF920F9312
:1003D0001F937B018C018FB7F89440911E015091BF
:1003E0001F0160912001709121018FBF2FB7F894F8
:1003F00080911E0190911F01A0912001B0912101D7
:100400002FBF841B950BA60BB70BE816F9060A073E
:100410001B0760F71F910F91FF90EF90089578945C
:1004200084B5826084BD84B5816084BD85B58260F9
:1004300085BD85B5816085BDEEE6F0E08081816097
:100440008083E1E8F0E08081826080838081816048
:100450008083E0E8F0E0808181608083E1EBF0E080
:10046000808184608083E0EBF0E080818160808324
:10047000EAE7F0E08081846080838081826080830D
:100480008081816080838081806880831092C10038
:100490000895877090910E019295990F990F907C15
:1004A000982B90937C0080917A00806480937A00EE
:1004B00080917A0086FDFCCF2091780040917900F0
:1004C000942F80E030E0282B392BC90108951F9329
:1004D000CF93DF93182FEB0161E00E94C002E12F60
:1004E000F0E0E255FF4F8491833051F48091800019
:1004F000806880938000D0938900C09388003CC0BE
:10050000843051F480918000806280938000D09389
:100510008B00C0938A0030C0813039F4209729F1D4
:1005200084B5806884BDC7BD27C0823039F4209768
:10053000E1F084B5806284BDC8BD1EC0863041F440
:100540008091B00080688093B000C093B30014C065
:10055000873041F48091B00080628093B000C093F6
:10056000B4000AC0C038D1051CF4812F60E002C07D
:10057000812F61E00E94E002DF91CF911F910895E9
:10058000282F30E0C90186569F4FFC0194912A57CD
:100590003F4FF9018491882391F0E82FF0E0EE0FAE
:1005A000FF1FE859FF4FA591B491662329F48C9160
:1005B000909589238C9308958C91892B8C93089521
:1005C000482F50E0CA0182559F4FFC012491CA0177
:1005D00086569F4FFC0194914A575F4FFA01349120
:1005E0003323D1F1222331F1233021F48091800093
:1005F0008F7705C0243031F4809180008F7D809307
:10060000800018C0213019F484B58F7704C02230DF
:1006100021F484B58F7D84BD0DC0263021F48091F6
:10062000B0008F7705C0273029F48091B0008F7D0E
:100630008093B000E32FF0E0EE0FFF1FEE58FF4F66
:10064000A591B491662329F48C91909589238C937C
:1006500008958C91892B8C930895EF92FF920F93BC
:100660001F937B018C01611571058105910529F4AA
:1006700020E030E040E050E00BC00E94D300A80131
:1006800097010E949403AC01CB01DA019C01AD01FA
:10069000B901CA011F910F91FF90EF900895EF9259
:1006A000FF920F931F937B018C01621773078407DE
:1006B000950764F4261B370B480B590BCA01B90187
:1006C0000E942D03E60EF71E081F191FB701C8016F
:1006D0001F910F91FF90EF900895009729F0BC01B2
:1006E00080E090E00E94D8000895629FD001739F3F
:1006F000F001829FE00DF11D649FE00DF11D929FBE
:10070000F00D839FF00D749FF00D659FF00D9927FC
:10071000729FB00DE11DF91F639FB00DE11DF91F20
:10072000BD01CF011124089597FB092E05260ED097
:1007300057FD04D014D00AD0001C38F450954095D1
:10074000309521953F4F4F4F5F4F0895F6F79095A5
:100750008095709561957F4F8F4F9F4F0895A1E2CF
:100760001A2EAA1BBB1BFD010DC0AA1FBB1FEE1F2B
:10077000FF1FA217B307E407F50720F0A21BB30B76
:10078000E40BF50B661F771F881F991F1A9469F7F2
:1007900060957095809590959B01AC01BD01CF014E
:1007A00008952F923F924F925F926F927F928F9215
:1007B0009F92AF92BF92CF92DF92EF92FF920F93F0
:1007C0001F93CF93DF93CDB7DEB7CA1BDB0B0FB6FA
:1007D000F894DEBF0FBECDBF09942A8839884888B7
:1007E0005F846E847D848C849B84AA84B984C8844D
:1007F000DF80EE80FD800C811B81AA81B981CE0F44
:10080000D11D0FB6F894DEBF0FBECDBFED01089528
:04081000F894FFCF8A
:100814000100000009000A000B000A000F0001009B
:00000001FF
