:100000000C9476000C949E000C949E000C949E0020
:100010000C949E000C949E000C949E000C949E00E8
:100020000C949E000C949E000C949E000C949E00D8
:100030000C949E000C949E000C949E000C949E00C8
:100040000C9433050C949E000C9406030C949E00B3
:100050000C949E000C949E000C949E000C949E00A8
:100060000C949E000C949E0008000000BE9224494F
:10007000123EABAAAA2ABECDCCCC4C3E00000080DA
:10008000BEABAAAAAA3E00000000BF000000803F4D
:100090000000000000084178D3BB4387D1133D190D
:1000A0000E3CC3BD4282AD2B3E68EC8276BED98F3A
:1000B000E1A93E4C80EFFFBE01C4FF7F3F0000007E
:1000C000000007634236B79BD8A71A39685618AEA6
:1000D000BAAB558C1D3CB7CC5763BD6DEDFD753E7D
:1000E000F6177231BF000000803FBF0311241FBE0E
:1000F000CFEFD8E0DEBFCDBF11E0A0E0B1E0ECE093
:10010000F4E102C005900D92A836B107D9F712E0CC
:10011000A8E6B1E001C01D92A132B107E1F710E0FD
:10012000CCEED0E004C02297FE010E94000ACA3E35
:10013000D107C9F70E94FF020C94040A0C94000036
:100140008F929F92AF92BF92CF92DF92EF92FF92E7
:100150000F931F93CF93DF937B018C01842E0E941A
:10016000CA069B01AC01EB0186E092E0B9010E9456
:100170001605882009F479C086E092E060E071E01D
:100180000E942D04982C81E0A82EB12CC12CD12CDA
:10019000C601B5012AE030E040E050E00E947B0952
:1001A0005B016C019A94A1F7C801B70120E030E02F
:1001B00040E050E00E94AD079E01442737FD409586
:1001C000542F88234CF0CA01B9010E94FD069B01FF
:1001D000AC01C801B70106C0CA01B9010E94FD0601
:1001E000A80197010E94FD057B018C01C601B501A4
:1001F0000E94FB069B01AC01C801B7010E94F607F3
:100200000E94CF06D62EE72EF82E092F182D11505A
:10021000262F372F482F592FC901DA01BC01CD01F4
:1002200001C011502AE030E040E050E00E94AD09EA
:10023000C901DA01BC01CD01611571058105910586
:1002400081F707C086E092E062E071E00E942D0431
:1002500011501123B9F786E092E04D2D5E2D6F2DE0
:10026000702F2AE030E00E941E05DF91CF911F9190
:100270000F91FF90EF90DF90CF90BF90AF909F9045
:100280008F9008952F923F924F925F926F927F923C
:100290008F929F92AF92BF92CF92DF92EF92FF9296
:1002A0000F931F93CF93DF9386E092E064E071E0B9
:1002B0000E944C0486E092E065E071E00E942D040B
:1002C00086E092E06FE071E00E942D0486E092E00B
:1002D0006CE171E00E942D0486E092E063E271E03F
:1002E0000E942D0486E092E06BE271E00E942D04F2
:1002F00086E092E066E371E00E942D0486E092E0E1
:1003000064E071E00E944C0410928101109280011F
:10031000C0E0D4E047C1809158010E94DF05AA27C0
:1003200097FDA095BA2FBC01CD010E94FD061B01CF
:100330002C01609368017093690180936A01909326
:100340006B0160E070E080E894E4A20191010E94FA
:10035000620620E030E040E85FE30E94FD0520E017
:1003600030E64AEE56E40E94F60760937C017093F3
:100370007D0180937E0190937F0120E030E64AEE7C
:1003800056E40E9462069B01AC0120936C013093FD
:100390006D0140936E0150936F010E94B6073B01BF
:1003A0004C01A40193010E94F6075B016C01C4019A
:1003B000B30120E030E040E450E40E9459087B01A2
:1003C0008C01C401B30127E83EEC47E859E30E94E1
:1003D000F60729E238ED4BE55BE30E94FE053B01A1
:1003E0004C01C601B50129E131EB4CE856E30E940E
:1003F000F6079B01AC01C401B3010E94FE055B013D
:100400006C01C801B70121E53AE849E953EB0E94C4
:10041000F6079B01AC01C601B5010E94FE059B01D8
:10042000AC0160E070E080E89FE30E9462066093A8
:10043000700170937101809372019093730123E3B3
:1004400033E948E853E40E94FD056093740170931A
:100450007501809376019093770120E030E040E1D0
:1004600051E40E94F60720E030E040EA50E40E94A8
:10047000620620E030E040E052E40E94FE05609316
:1004800078017093790180937A0190937B01C20186
:10049000B10140E00E94A00086E092E064E471E0D7
:1004A0000E942D04609168017091690180916A0138
:1004B00090916B010E94CA069E01261B370BB90161
:1004C000882777FD8095982F0E94FD0620E030E078
:1004D00040E85AE30E94F60729E23CE54FE950E480
:1004E0000E94F60743E00E94A00086E092E064E4E8
:1004F00071E00E942D0460916C0170916D018091FA
:100500006E0190916F0143E00E94A00086E092E0AE
:1005100067E471E00E942D04609170017091710197
:10052000809172019091730141E00E94A00086E0E9
:1005300092E069E471E00E942D0460917401709171
:100540007501809176019091770141E00E94A000B1
:1005500086E092E06DE471E00E942D0460917801E4
:100560007091790180917A0190917B0141E00E9424
:10057000A00086E092E064E071E00E944C0460918B
:100580005A0170915B01882777FD8095982F0E9412
:100590007B0580918001909181010196909381016A
:1005A0008093800180918001909181010A970CF4E1
:1005B000B2CEDF91CF911F910F91FF90EF90DF901E
:1005C000CF90BF90AF909F908F907F906F905F90F3
:1005D0004F903F902F9008950F931F9306E012E0E5
:1005E000C80140E855E260E070E00E944303C801A2
:1005F00062E571E00E944C041F910F9108950E94E2
:10060000A5050E94EC020E944201FDCF1F920F92AD
:100610000FB60F9211242F933F934F935F936F93D5
:100620007F938F939F93AF93BF93EF93FF934091EB
:10063000C600E0910202F0910302CF01019660E84A
:1006400070E00E949A099C01809104029091050239
:100650002817390739F0EE57FE4F408330930302D5
:1006600020930202FF91EF91BF91AF919F918F91E3
:100670007F916F915F914F913F912F910F900FBE9E
:100680000F901F901895AF92BF92CF92DF92EF928A
:10069000FF920F931F93CF93DF936C017A018B012D
:1006A000DC011496AD90BC901597CB01BA0122E005
:1006B00030E040E050E00E94CF09205C3D4B404FCD
:1006C0005F4FCA01B901A80197010E94CF09C90172
:1006D000DA010197A109B109292F3A2F4B2F55278C
:1006E00047FD5A950196A11DB11DE5012883E6013C
:1006F000EE81FF8181508083EA85FB85208141E086
:1007000050E0CA010E8402C0880F991F0A94E2F7D4
:10071000282B2083EA85FB852081CA010F8402C033
:10072000880F991F0A94E2F7282B2083EA85FB851E
:100730008081088802C0440F551F0A94E2F7842B79
:100740008083DF91CF911F910F91FF90EF90DF9009
:10075000CF90BF90AF900895FC01A085B18521890D
:100760008C9190E0022E02C0959587950A94E2F74D
:1007700080FFF6CF0484F585E02D6083089581E63F
:1007800091E0909307028093060282E891E09093B3
:1007900009028093080285EC90E090930B0280930D
:1007A0000A0284EC90E090930D0280930C0280EC9E
:1007B00090E090930F0280930E0281EC90E0909372
:1007C00011028093100286EC90E0909313028093C4
:1007D000120284E08093140283E08093150287E084
:1007E0008093160285E08093170208950F931F935C
:1007F000CF93DF938C01EB0109C02196D801ED91D5
:10080000FC910190F081E02DC80109956881662373
:10081000A1F7DF91CF911F910F910895EF92FF9271
:100820000F931F93CF93DF938C017B01EA010CC0E0
:10083000D7016D917D01D801ED91FC910190F0817E
:10084000E02DC80109952197209791F7DF91CF916D
:100850001F910F91FF90EF900895DC01ED91FC91B5
:100860000280F381E02D099508950F931F938C0169
:10087000DC01ED91FC910190F081E02D6DE0099596
:10088000D801ED91FC910190F081E02DC8016AE062
:1008900009951F910F9108950F931F938C010E944A
:1008A0002D04C8010E9435041F910F9108952F92C5
:1008B0003F924F925F926F927F928F929F92AF92F0
:1008C000BF92CF92DF92EF92FF920F931F93DF932D
:1008D000CF93CDB7DEB7A0970FB6F894DEBF0FBEAB
:1008E000CDBF1C016A017B014115510561057105F0
:1008F00049F4DC01ED91FC910190F081E02D60E381
:10090000099554C0882499245401422E5524662404
:10091000772401E010E00C0F1D1F080D191DC70101
:10092000B601A30192010E94AD09F8016083089409
:10093000811C911CA11CB11CC701B601A30192012D
:100940000E94AD09C901DA016C017D01C114D10415
:10095000E104F104F1F681E0E82EF12CEC0EFD1E2D
:10096000E80CF91C3E010894611C711CD501C401FE
:100970000197A109B1096C01C818D90814C0F60182
:10098000EE0DFF1D60816A3010F4605D01C0695C8E
:10099000D101ED91FC910190F081E02DC10109950B
:1009A0000894E108F1086E147F0449F7A0960FB689
:1009B000F894DEBF0FBECDBFCF91DF911F910F9195
:1009C000FF90EF90DF90CF90BF90AF909F908F906F
:1009D0007F906F905F904F903F902F900895EF928F
:1009E000FF920F931F93CF93DF93EC017A018B015A
:1009F00077FF0FC0E881F9810190F081E02D6DE271
:100A0000099510950095F094E094E11CF11C011DEE
:100A1000111DCE01B801A7012AE00E945704DF9101
:100A2000CF911F910F91FF90EF900895AB01662732
:100A300057FD6095762F0E94EF040895DC01211583
:100A4000310541F4ED91FC910190F081E02D642F8E
:100A5000099508952A30310519F40E94EF0408958C
:100A60000E94570408951F920F920FB60F921124FF
:100A70002F933F938F939F93AF93BF9380911C02CB
:100A800090911D02A0911E02B0911F023091200290
:100A90000196A11DB11D232F2D5F2D3720F02D575D
:100AA0000196A11DB11D2093200280931C029093FA
:100AB0001D02A0931E02B0931F0280911802909114
:100AC0001902A0911A02B0911B020196A11DB11D3D
:100AD0008093180290931902A0931A02B0931B02FC
:100AE000BF91AF919F918F913F912F910F900FBE2A
:100AF0000F901F901895EF92FF920F931F937B0119
:100B00008C018FB7F89440911C0250911D026091A6
:100B10001E0270911F028FBF2FB7F89480911C02A4
:100B200090911D02A0911E02B0911F022FBF841B45
:100B3000950BA60BB70BE816F9060A071B0760F71B
:100B40001F910F91FF90EF900895789484B5826083
:100B500084BD84B5816084BD85B5826085BD85B561
:100B6000816085BDEEE6F0E0808181608083E1E810
:100B7000F0E0808182608083808181608083E0E812
:100B8000F0E0808181608083E1EBF0E0808184602F
:100B90008083E0EBF0E0808181608083EAE7F0E031
:100BA0008081846080838081826080838081816095
:100BB00080838081806880831092C100089587704F
:100BC00090915C019295990F990F907C982B90933E
:100BD0007C0080917A00806480937A0080917A0012
:100BE00086FDFCCF2091780040917900942F80E021
:100BF00030E0282B392BC90108955058BB27AA276C
:100C00000ED071C162D130F067D120F031F49F3F36
:100C100011F41EF457C10EF4E095E7FB4DC1E92F26
:100C200073D180F3BA17620773078407950718F02A
:100C300071F49EF58BC10EF4E0950B2EBA2FA02D0A
:100C40000B01B90190010C01CA01A0011124FF2779
:100C5000591B99F0593F50F4503E68F11A16F04074
:100C6000A22F232F342F4427585FF3CF4695379573
:100C70002795A795F0405395C9F77EF41F16BA0B38
:100C8000620B730B840BBAF09150A1F0FF0FBB1FE6
:100C9000661F771F881FC2F70EC0BA0F621F731F2F
:100CA000841F48F4879577956795B795F7959E3F8C
:100CB00008F0B3CF9395880F08F09927EE0F97951A
:100CC000879508950CD00FC107D140F0FED030F0C9
:100CD00021F45F3F19F0F0C0511139C1F3C014D1B4
:100CE00098F39923C9F35523B1F3951B550BBB27F3
:100CF000AA2762177307840738F09F5F5F4F220FA0
:100D0000331F441FAA1FA9F333D00E2E3AF0E0E898
:100D100030D091505040E695001CCAF729D0FE2FE4
:100D200027D0660F771F881FBB1F26173707480776
:100D3000AB07B0E809F0BB0B802DBF01FF2793582C
:100D40005F4F2AF09E3F510568F0B6C000C15F3F7B
:100D5000ECF3983EDCF3869577956795B795F79514
:100D60009F5FC9F7880F911D9695879597F908950C
:100D7000E1E0660F771F881FBB1F621773078407A8
:100D8000BA0720F0621B730B840BBA0BEE1F88F7B7
:100D9000E095089504D06894B111D9C00895BCD0ED
:100DA00088F09F5790F0B92F9927B751A0F0D1F054
:100DB000660F771F881F991F1AF0BA95C9F712C0DE
:100DC000B13081F0C3D0B1E00895C0C0672F782F53
:100DD0008827B85F39F0B93FCCF38695779567954A
:100DE000B395D9F73EF490958095709561957F4FB6
:100DF0008F4F9F4F0895E89409C097FB3EF490955C
:100E00008095709561957F4F8F4F9F4F9923A9F0E3
:100E1000F92F96E9BB279395F69587957795679572
:100E2000B795F111F8CFFAF4BB0F11F460FF1BC0B6
:100E30006F5F7F4F8F4F9F4F16C0882311F096E949
:100E400011C0772321F09EE8872F762F05C06623F7
:100E500071F096E8862F70E060E02AF09A95660FB0
:100E6000771F881FDAF7880F9695879597F9089569
:100E7000990F0008550FAA0BE0E8FEEF16161706AB
:100E8000E807F907C0F012161306E407F50798F013
:100E9000621B730B840B950B39F40A2661F0232B2C
:100EA000242B252B21F408950A2609F4A140A695A8
:100EB0008FEF811D811D089597F99F6780E870E08D
:100EC00060E008959FEF80EC089500240A941616C0
:100ED000170618060906089500240A941216130628
:100EE000140605060895092E0394000C11F48823B6
:100EF00052F0BB0F40F4BF2B11F460FF04C06F5FD2
:100F00007F4F8F4F9F4F089557FD9058440F551FA7
:100F100059F05F3F71F04795880F97FB991F61F07B
:100F20009F3F79F087950895121613061406551FF2
:100F3000F2CF4695F1DF08C0161617061806991F5E
:100F4000F1CF86957105610508940895E894BB2753
:100F500066277727CB0197F908958ADF08F48FEF8A
:100F600008950EF023C1AECF6894A6CFD5DFC8F3A5
:100F70009923D1F3C6F3DF93CF931F930F93FF927F
:100F8000C92FDD2788232AF02197660F771F881F36
:100F9000DAF720E030E040E85FEB9FE3883920F0AB
:100FA000803E30F021968F7729DEE8E6F0E003C03E
:100FB00025DEE5E9F0E00AD18B01BE01EC01FB2E54
:100FC0006F5771097595771F880B990B16DF28E10C
:100FD00032E741E35FE316D0AF2D9801AE01FF90F9
:100FE0000F911F91CF91DF911ADE7DCF0BD07BCF78
:100FF0006CDF28F071DF18F0952309F05DCF62CF28
:101000001124A5CF81DFA0F3959FD1F3950F50E078
:10101000551F629FF001729FBB27F00DB11D639FAA
:10102000AA27F00DB11DAA1F649F6627B00DA11D50
:10103000661F829F2227B00DA11D621F739FB00DF6
:10104000A11D621F839FA00D611D221F749F332766
:10105000A00D611D231F849F600D211D822F762FFF
:101060006A2F11249F5750408AF0E1F088234AF0FC
:10107000EE0FFF1FBB1F661F771F881F9150504048
:10108000A9F79E3F510570F017CF61CF5F3FECF39A
:10109000983EDCF3869577956795B795F795E79534
:1010A0009F5FC1F7FE2B880F911D9695879597F945
:1010B0000895FA01EE0FFF1F30962105310599F1D1
:1010C0006115710561F48038BFE39B0749F16894AD
:1010D0009038810561F08038BFEF9B0741F099237C
:1010E00042F5FF3FE1053105210511F1E89408942F
:1010F000E795D901AA2329F4AB2FBE2FF85FD0F3CF
:1011000010C0FF5F70F4A695E0F7F73950F019F0C2
:10111000FF3A38F49F779F930CD00F9007FC9058BC
:1011200008953EF0CFCE60E070E080E89FE3089540
:101130004FE79F775F934F933F932F9317DF2F9145
:101140003F914F915F9152DF05C019F40EF0B4CE7C
:10115000FDCEB8CEE1DEC8F39638C0F707F80F929F
:10116000E8942BE33AEA48EB5FE74EDF0F920F92E9
:101170000F924DB75EB70F928BD0E2ECF0E026D025
:101180004F915F91EF91FF91E595EE1FFF1F49F0A1
:10119000FE57E0684427EE0F441FFA95E1F74195AA
:1011A000550B42D00F9007FE36C008959F3F49F07F
:1011B000915028F4869577956795B7959F5F80380D
:1011C0009F4F880F9695879597F90895DF93CF9352
:1011D0001F930F93FF92EF92DF927B018C01689433
:1011E00005C0DA2EEF010EDFFE01E894A5912591EE
:1011F000359145915591AEF3EF0111DDFE01970157
:10120000A801DA9479F7DF90EF90FF900F911F918A
:10121000CF91DF9108959B01AC0160E070E080E820
:101220009FE350CD49CEC2CF77DEE8F39923D9F3BF
:10123000940F511DBBF39150504094F059F0882306
:1012400032F0660F771F881F91505040C1F79E3FC4
:10125000510544F7880F911D9695879597F9089544
:101260005F3FACF0983E9CF0BB27869577956795DD
:10127000B79508F4B1609395C1F7BB0F58F711F417
:1012800060FFE8CF6F5F7F4F8F4F9F4FE3CF5FCE01
:10129000FA01DC01AA0FBB1F9B01AC01BF5728F468
:1012A00022273327442750781FC0B75188F4AB2F2B
:1012B0000024469537952795011CA395D2F300206D
:1012C00069F0220F331F441FB395DAF30DD095CC8C
:1012D00061307105A0E88A07B94630F49B01AC0182
:1012E0006627772788279078309621F020833183EE
:1012F000428353830895629FD001739FF001829FC0
:10130000E00DF11D649FE00DF11D929FF00D839F94
:10131000F00D749FF00D659FF00D9927729FB00D31
:10132000E11DF91F639FB00DE11DF91FBD01CF0144
:101330001124089597FB092E07260AD077FD04D0C3
:1013400049D006D000201AF4709561957F4F08951A
:10135000F6F7909581959F4F0895A1E21A2EAA1B4A
:10136000BB1BFD010DC0AA1FBB1FEE1FFF1FA21755
:10137000B307E407F50720F0A21BB30BE40BF50B52
:10138000661F771F881F991F1A9469F760957095DB
:10139000809590959B01AC01BD01CF01089597FB0D
:1013A000092E05260ED057FD04D0D7DF0AD0001C29
:1013B00038F450954095309521953F4F4F4F5F4FF2
:1013C0000895F6F790958095709561957F4F8F4FB2
:1013D0009F4F0895AA1BBB1B51E107C0AA1FBB1F4B
:1013E000A617B70710F0A61BB70B881F991F5A95B1
:1013F000A9F780959095BC01CD010895EE0FFF1FD0
:0C1400000590F491E02D0994F894FFCFC2
:10140C002E003000004144432056616C7565000984
:10141C00546865726D205664726F700009522F52B9
:10142C00323500094B656C76696E000920204365E6
:10143C006C636975730009202046616872656E687B
:10144C0065697400090900090009202000090920B8
:10145C00200052656164790005002C010100000038
:08146C0000AC03F6030E0400BE
:00000001FF
